{
  "contractName": "AdvanceCollectibles",
  "abi": [
    {
      "inputs": [
        {
          "internalType": "address",
          "name": "_vrfCoordinatorAddress",
          "type": "address"
        },
        {
          "internalType": "address",
          "name": "_linkTokenAddress",
          "type": "address"
        },
        {
          "internalType": "bytes32",
          "name": "_keyHash",
          "type": "bytes32"
        }
      ],
      "stateMutability": "nonpayable",
      "type": "constructor"
    },
    {
      "anonymous": false,
      "inputs": [
        {
          "indexed": true,
          "internalType": "address",
          "name": "owner",
          "type": "address"
        },
        {
          "indexed": true,
          "internalType": "address",
          "name": "approved",
          "type": "address"
        },
        {
          "indexed": true,
          "internalType": "uint256",
          "name": "tokenId",
          "type": "uint256"
        }
      ],
      "name": "Approval",
      "type": "event"
    },
    {
      "anonymous": false,
      "inputs": [
        {
          "indexed": true,
          "internalType": "address",
          "name": "owner",
          "type": "address"
        },
        {
          "indexed": true,
          "internalType": "address",
          "name": "operator",
          "type": "address"
        },
        {
          "indexed": false,
          "internalType": "bool",
          "name": "approved",
          "type": "bool"
        }
      ],
      "name": "ApprovalForAll",
      "type": "event"
    },
    {
      "anonymous": false,
      "inputs": [
        {
          "indexed": true,
          "internalType": "bytes32",
          "name": "requestId",
          "type": "bytes32"
        }
      ],
      "name": "RequestCollectible",
      "type": "event"
    },
    {
      "anonymous": false,
      "inputs": [
        {
          "indexed": false,
          "internalType": "bytes32",
          "name": "requestId",
          "type": "bytes32"
        }
      ],
      "name": "RequestedRandomness",
      "type": "event"
    },
    {
      "anonymous": false,
      "inputs": [
        {
          "indexed": true,
          "internalType": "address",
          "name": "from",
          "type": "address"
        },
        {
          "indexed": true,
          "internalType": "address",
          "name": "to",
          "type": "address"
        },
        {
          "indexed": true,
          "internalType": "uint256",
          "name": "tokenId",
          "type": "uint256"
        }
      ],
      "name": "Transfer",
      "type": "event"
    },
    {
      "anonymous": false,
      "inputs": [
        {
          "indexed": false,
          "internalType": "bytes32",
          "name": "requestId",
          "type": "bytes32"
        }
      ],
      "name": "myEvent",
      "type": "event"
    },
    {
      "inputs": [],
      "name": "LinkToken",
      "outputs": [
        {
          "internalType": "address",
          "name": "",
          "type": "address"
        }
      ],
      "stateMutability": "view",
      "type": "function",
      "constant": true
    },
    {
      "inputs": [
        {
          "internalType": "address",
          "name": "to",
          "type": "address"
        },
        {
          "internalType": "uint256",
          "name": "tokenId",
          "type": "uint256"
        }
      ],
      "name": "approve",
      "outputs": [],
      "stateMutability": "nonpayable",
      "type": "function"
    },
    {
      "inputs": [
        {
          "internalType": "address",
          "name": "owner",
          "type": "address"
        }
      ],
      "name": "balanceOf",
      "outputs": [
        {
          "internalType": "uint256",
          "name": "",
          "type": "uint256"
        }
      ],
      "stateMutability": "view",
      "type": "function",
      "constant": true
    },
    {
      "inputs": [],
      "name": "baseURI",
      "outputs": [
        {
          "internalType": "string",
          "name": "",
          "type": "string"
        }
      ],
      "stateMutability": "view",
      "type": "function",
      "constant": true
    },
    {
      "inputs": [],
      "name": "checkEx",
      "outputs": [
        {
          "internalType": "string",
          "name": "",
          "type": "string"
        }
      ],
      "stateMutability": "view",
      "type": "function",
      "constant": true
    },
    {
      "inputs": [
        {
          "internalType": "uint256",
          "name": "tokenId",
          "type": "uint256"
        }
      ],
      "name": "getApproved",
      "outputs": [
        {
          "internalType": "address",
          "name": "",
          "type": "address"
        }
      ],
      "stateMutability": "view",
      "type": "function",
      "constant": true
    },
    {
      "inputs": [
        {
          "internalType": "address",
          "name": "owner",
          "type": "address"
        },
        {
          "internalType": "address",
          "name": "operator",
          "type": "address"
        }
      ],
      "name": "isApprovedForAll",
      "outputs": [
        {
          "internalType": "bool",
          "name": "",
          "type": "bool"
        }
      ],
      "stateMutability": "view",
      "type": "function",
      "constant": true
    },
    {
      "inputs": [],
      "name": "mockVar",
      "outputs": [
        {
          "internalType": "string",
          "name": "",
          "type": "string"
        }
      ],
      "stateMutability": "view",
      "type": "function",
      "constant": true
    },
    {
      "inputs": [],
      "name": "name",
      "outputs": [
        {
          "internalType": "string",
          "name": "",
          "type": "string"
        }
      ],
      "stateMutability": "view",
      "type": "function",
      "constant": true
    },
    {
      "inputs": [
        {
          "internalType": "uint256",
          "name": "tokenId",
          "type": "uint256"
        }
      ],
      "name": "ownerOf",
      "outputs": [
        {
          "internalType": "address",
          "name": "",
          "type": "address"
        }
      ],
      "stateMutability": "view",
      "type": "function",
      "constant": true
    },
    {
      "inputs": [],
      "name": "randomResult",
      "outputs": [
        {
          "internalType": "uint256",
          "name": "",
          "type": "uint256"
        }
      ],
      "stateMutability": "view",
      "type": "function",
      "constant": true
    },
    {
      "inputs": [
        {
          "internalType": "bytes32",
          "name": "requestId",
          "type": "bytes32"
        },
        {
          "internalType": "uint256",
          "name": "randomness",
          "type": "uint256"
        }
      ],
      "name": "rawFulfillRandomness",
      "outputs": [],
      "stateMutability": "nonpayable",
      "type": "function"
    },
    {
      "inputs": [
        {
          "internalType": "bytes32",
          "name": "",
          "type": "bytes32"
        }
      ],
      "name": "requestIdToSender",
      "outputs": [
        {
          "internalType": "address",
          "name": "",
          "type": "address"
        }
      ],
      "stateMutability": "view",
      "type": "function",
      "constant": true
    },
    {
      "inputs": [
        {
          "internalType": "bytes32",
          "name": "",
          "type": "bytes32"
        }
      ],
      "name": "requestIdToTokenId",
      "outputs": [
        {
          "internalType": "uint256",
          "name": "",
          "type": "uint256"
        }
      ],
      "stateMutability": "view",
      "type": "function",
      "constant": true
    },
    {
      "inputs": [
        {
          "internalType": "bytes32",
          "name": "",
          "type": "bytes32"
        }
      ],
      "name": "requestIdToTokenURI",
      "outputs": [
        {
          "internalType": "string",
          "name": "",
          "type": "string"
        }
      ],
      "stateMutability": "view",
      "type": "function",
      "constant": true
    },
    {
      "inputs": [
        {
          "internalType": "address",
          "name": "from",
          "type": "address"
        },
        {
          "internalType": "address",
          "name": "to",
          "type": "address"
        },
        {
          "internalType": "uint256",
          "name": "tokenId",
          "type": "uint256"
        }
      ],
      "name": "safeTransferFrom",
      "outputs": [],
      "stateMutability": "nonpayable",
      "type": "function"
    },
    {
      "inputs": [
        {
          "internalType": "address",
          "name": "from",
          "type": "address"
        },
        {
          "internalType": "address",
          "name": "to",
          "type": "address"
        },
        {
          "internalType": "uint256",
          "name": "tokenId",
          "type": "uint256"
        },
        {
          "internalType": "bytes",
          "name": "_data",
          "type": "bytes"
        }
      ],
      "name": "safeTransferFrom",
      "outputs": [],
      "stateMutability": "nonpayable",
      "type": "function"
    },
    {
      "inputs": [
        {
          "internalType": "address",
          "name": "operator",
          "type": "address"
        },
        {
          "internalType": "bool",
          "name": "approved",
          "type": "bool"
        }
      ],
      "name": "setApprovalForAll",
      "outputs": [],
      "stateMutability": "nonpayable",
      "type": "function"
    },
    {
      "inputs": [
        {
          "internalType": "bytes4",
          "name": "interfaceId",
          "type": "bytes4"
        }
      ],
      "name": "supportsInterface",
      "outputs": [
        {
          "internalType": "bool",
          "name": "",
          "type": "bool"
        }
      ],
      "stateMutability": "view",
      "type": "function",
      "constant": true
    },
    {
      "inputs": [],
      "name": "symbol",
      "outputs": [
        {
          "internalType": "string",
          "name": "",
          "type": "string"
        }
      ],
      "stateMutability": "view",
      "type": "function",
      "constant": true
    },
    {
      "inputs": [
        {
          "internalType": "uint256",
          "name": "index",
          "type": "uint256"
        }
      ],
      "name": "tokenByIndex",
      "outputs": [
        {
          "internalType": "uint256",
          "name": "",
          "type": "uint256"
        }
      ],
      "stateMutability": "view",
      "type": "function",
      "constant": true
    },
    {
      "inputs": [],
      "name": "tokenCounter",
      "outputs": [
        {
          "internalType": "uint256",
          "name": "",
          "type": "uint256"
        }
      ],
      "stateMutability": "view",
      "type": "function",
      "constant": true
    },
    {
      "inputs": [
        {
          "internalType": "uint256",
          "name": "",
          "type": "uint256"
        }
      ],
      "name": "tokenIdToBreed",
      "outputs": [
        {
          "internalType": "enum AdvanceCollectibles.Breed",
          "name": "",
          "type": "uint8"
        }
      ],
      "stateMutability": "view",
      "type": "function",
      "constant": true
    },
    {
      "inputs": [
        {
          "internalType": "address",
          "name": "owner",
          "type": "address"
        },
        {
          "internalType": "uint256",
          "name": "index",
          "type": "uint256"
        }
      ],
      "name": "tokenOfOwnerByIndex",
      "outputs": [
        {
          "internalType": "uint256",
          "name": "",
          "type": "uint256"
        }
      ],
      "stateMutability": "view",
      "type": "function",
      "constant": true
    },
    {
      "inputs": [
        {
          "internalType": "uint256",
          "name": "tokenId",
          "type": "uint256"
        }
      ],
      "name": "tokenURI",
      "outputs": [
        {
          "internalType": "string",
          "name": "",
          "type": "string"
        }
      ],
      "stateMutability": "view",
      "type": "function",
      "constant": true
    },
    {
      "inputs": [],
      "name": "totalSupply",
      "outputs": [
        {
          "internalType": "uint256",
          "name": "",
          "type": "uint256"
        }
      ],
      "stateMutability": "view",
      "type": "function",
      "constant": true
    },
    {
      "inputs": [
        {
          "internalType": "address",
          "name": "from",
          "type": "address"
        },
        {
          "internalType": "address",
          "name": "to",
          "type": "address"
        },
        {
          "internalType": "uint256",
          "name": "tokenId",
          "type": "uint256"
        }
      ],
      "name": "transferFrom",
      "outputs": [],
      "stateMutability": "nonpayable",
      "type": "function"
    },
    {
      "inputs": [
        {
          "internalType": "bytes32",
          "name": "requestId",
          "type": "bytes32"
        }
      ],
      "name": "getrequestIdToSender",
      "outputs": [
        {
          "internalType": "address",
          "name": "",
          "type": "address"
        }
      ],
      "stateMutability": "view",
      "type": "function",
      "constant": true
    },
    {
      "inputs": [
        {
          "internalType": "bytes32",
          "name": "requestId",
          "type": "bytes32"
        }
      ],
      "name": "getrequestIdToTokenURI",
      "outputs": [
        {
          "internalType": "string",
          "name": "",
          "type": "string"
        }
      ],
      "stateMutability": "view",
      "type": "function",
      "constant": true
    },
    {
      "inputs": [
        {
          "internalType": "uint32",
          "name": "tokenId",
          "type": "uint32"
        }
      ],
      "name": "gettokenIdToBreed",
      "outputs": [
        {
          "internalType": "enum AdvanceCollectibles.Breed",
          "name": "",
          "type": "uint8"
        }
      ],
      "stateMutability": "view",
      "type": "function",
      "constant": true
    },
    {
      "inputs": [
        {
          "internalType": "uint32",
          "name": "tokenId",
          "type": "uint32"
        }
      ],
      "name": "gettokenIdToBreedStr",
      "outputs": [
        {
          "internalType": "string",
          "name": "",
          "type": "string"
        }
      ],
      "stateMutability": "view",
      "type": "function",
      "constant": true
    },
    {
      "inputs": [
        {
          "internalType": "bytes32",
          "name": "requestId",
          "type": "bytes32"
        }
      ],
      "name": "getrequestIdToTokenId",
      "outputs": [
        {
          "internalType": "uint256",
          "name": "",
          "type": "uint256"
        }
      ],
      "stateMutability": "view",
      "type": "function",
      "constant": true
    },
    {
      "inputs": [
        {
          "internalType": "string",
          "name": "str",
          "type": "string"
        }
      ],
      "name": "check4",
      "outputs": [
        {
          "internalType": "bytes32",
          "name": "",
          "type": "bytes32"
        }
      ],
      "stateMutability": "payable",
      "type": "function",
      "payable": true
    },
    {
      "inputs": [
        {
          "internalType": "uint256",
          "name": "tokenId",
          "type": "uint256"
        },
        {
          "internalType": "string",
          "name": "tokenURI",
          "type": "string"
        }
      ],
      "name": "setTokenURI",
      "outputs": [],
      "stateMutability": "nonpayable",
      "type": "function"
    },
    {
      "inputs": [],
      "name": "getRandomNumber",
      "outputs": [
        {
          "internalType": "bytes32",
          "name": "requestId",
          "type": "bytes32"
        }
      ],
      "stateMutability": "nonpayable",
      "type": "function"
    }
  ],
  "bytecode": "0x60c06040523480156200001157600080fd5b50604051620045f6380380620045f6833981810160405260608110156200003757600080fd5b8101908080519060200190929190805190602001909291908051906020019092919050505082826040518060400160405280600781526020017f446f6767696573000000000000000000000000000000000000000000000000008152506040518060400160405280600381526020017f444f470000000000000000000000000000000000000000000000000000000000815250620000e26301ffc9a760e01b6200023660201b60201c565b8160069080519060200190620000fa9291906200033f565b508060079080519060200190620001139291906200033f565b506200012c6380ac58cd60e01b6200023660201b60201c565b62000144635b5e139f60e01b6200023660201b60201c565b6200015c63780e9d6360e01b6200023660201b60201c565b50508173ffffffffffffffffffffffffffffffffffffffff1660a08173ffffffffffffffffffffffffffffffffffffffff1660601b815250508073ffffffffffffffffffffffffffffffffffffffff1660808173ffffffffffffffffffffffffffffffffffffffff1660601b81525050505080600b8190555081600f60006101000a81548173ffffffffffffffffffffffffffffffffffffffff021916908373ffffffffffffffffffffffffffffffffffffffff160217905550670de0b6b3a7640000600c819055506000600e81905550505050620003ee565b63ffffffff60e01b817bffffffffffffffffffffffffffffffffffffffffffffffffffffffff19161415620002d3576040517f08c379a000000000000000000000000000000000000000000000000000000000815260040180806020018281038252601c8152602001807f4552433136353a20696e76616c696420696e746572666163652069640000000081525060200191505060405180910390fd5b6001600080837bffffffffffffffffffffffffffffffffffffffffffffffffffffffff19167bffffffffffffffffffffffffffffffffffffffffffffffffffffffff1916815260200190815260200160002060006101000a81548160ff02191690831515021790555050565b828054600181600116156101000203166002900490600052602060002090601f016020900481019282601f106200038257805160ff1916838001178555620003b3565b82800160010185558215620003b3579182015b82811115620003b257825182559160200191906001019062000395565b5b509050620003c29190620003c6565b5090565b620003eb91905b80821115620003e7576000816000905550600101620003cd565b5090565b90565b60805160601c60a05160601c6141d96200041d60003980611c755280612d24525080612ce852506141d96000f3fe6080604052600436106102045760003560e01c80634f8e2fdf11610118578063a22cb465116100a0578063c87b56dd1161006f578063c87b56dd146110d0578063cbbc3c2814611184578063d082e381146111e1578063dbdff2c11461120c578063e985e9c51461123757610204565b8063a22cb46514610e5e578063a983d1d314610ebb578063aa89ee6f14610f0a578063b88d4fde14610fbe57610204565b80637f7bf89d116100e75780637f7bf89d14610baf57806394985ddd14610c2a5780639584f7af14610c6f57806395d89b4114610cff5780639d42dac214610d8f57610204565b80634f8e2fdf146109e85780636352211e14610a3f5780636c0360eb14610aba57806370a0823114610b4a57610204565b806322881f881161019b57806335fb671c1161016a57806335fb671c146107af57806342619f661461083f57806342842e0e1461086a5780634372441a146108e55780634f6ccce71461099957610204565b806322881f881461061357806323b872dd146106625780632f5bfc72146106dd5780632f745c591461074057610204565b806315893a1c116101d757806315893a1c146103e1578063162094c41461049b57806318160ddd1461056d578063219c0eee1461059857610204565b806301ffc9a71461020957806306fdde031461027b578063081812fc1461030b578063095ea7b314610386575b600080fd5b34801561021557600080fd5b506102616004803603602081101561022c57600080fd5b8101908080357bffffffffffffffffffffffffffffffffffffffffffffffffffffffff191690602001909291905050506112c0565b604051808215151515815260200191505060405180910390f35b34801561028757600080fd5b50610290611327565b6040518080602001828103825283818151815260200191508051906020019080838360005b838110156102d05780820151818401526020810190506102b5565b50505050905090810190601f1680156102fd5780820380516001836020036101000a031916815260200191505b509250505060405180910390f35b34801561031757600080fd5b506103446004803603602081101561032e57600080fd5b81019080803590602001909291905050506113c9565b604051808273ffffffffffffffffffffffffffffffffffffffff1673ffffffffffffffffffffffffffffffffffffffff16815260200191505060405180910390f35b34801561039257600080fd5b506103df600480360360408110156103a957600080fd5b81019080803573ffffffffffffffffffffffffffffffffffffffff16906020019092919080359060200190929190505050611464565b005b3480156103ed57600080fd5b506104206004803603602081101561040457600080fd5b81019080803563ffffffff1690602001909291905050506115a8565b6040518080602001828103825283818151815260200191508051906020019080838360005b83811015610460578082015181840152602081019050610445565b50505050905090810190601f16801561048d5780820380516001836020036101000a031916815260200191505b509250505060405180910390f35b3480156104a757600080fd5b5061056b600480360360408110156104be57600080fd5b8101908080359060200190929190803590602001906401000000008111156104e557600080fd5b8201836020820111156104f757600080fd5b8035906020019184600183028401116401000000008311171561051957600080fd5b91908080601f016020809104026020016040519081016040528093929190818152602001838380828437600081840152601f19601f8201169050808301925050505050505091929192905050506116dd565b005b34801561057957600080fd5b5061058261176e565b6040518082815260200191505060405180910390f35b3480156105a457600080fd5b506105d1600480360360208110156105bb57600080fd5b810190808035906020019092919050505061177f565b604051808273ffffffffffffffffffffffffffffffffffffffff1673ffffffffffffffffffffffffffffffffffffffff16815260200191505060405180910390f35b34801561061f57600080fd5b5061064c6004803603602081101561063657600080fd5b81019080803590602001909291905050506117b2565b6040518082815260200191505060405180910390f35b34801561066e57600080fd5b506106db6004803603606081101561068557600080fd5b81019080803573ffffffffffffffffffffffffffffffffffffffff169060200190929190803573ffffffffffffffffffffffffffffffffffffffff169060200190929190803590602001909291905050506117ca565b005b3480156106e957600080fd5b5061071c6004803603602081101561070057600080fd5b81019080803563ffffffff169060200190929190505050611840565b6040518082600281111561072c57fe5b60ff16815260200191505060405180910390f35b34801561074c57600080fd5b506107996004803603604081101561076357600080fd5b81019080803573ffffffffffffffffffffffffffffffffffffffff16906020019092919080359060200190929190505050611870565b6040518082815260200191505060405180910390f35b3480156107bb57600080fd5b506107c46118cb565b6040518080602001828103825283818151815260200191508051906020019080838360005b838110156108045780820151818401526020810190506107e9565b50505050905090810190601f1680156108315780820380516001836020036101000a031916815260200191505b509250505060405180910390f35b34801561084b57600080fd5b50610854611969565b6040518082815260200191505060405180910390f35b34801561087657600080fd5b506108e36004803603606081101561088d57600080fd5b81019080803573ffffffffffffffffffffffffffffffffffffffff169060200190929190803573ffffffffffffffffffffffffffffffffffffffff1690602001909291908035906020019092919050505061196f565b005b3480156108f157600080fd5b5061091e6004803603602081101561090857600080fd5b810190808035906020019092919050505061198f565b6040518080602001828103825283818151815260200191508051906020019080838360005b8381101561095e578082015181840152602081019050610943565b50505050905090810190601f16801561098b5780820380516001836020036101000a031916815260200191505b509250505060405180910390f35b3480156109a557600080fd5b506109d2600480360360208110156109bc57600080fd5b8101908080359060200190929190505050611a3f565b6040518082815260200191505060405180910390f35b3480156109f457600080fd5b506109fd611a62565b604051808273ffffffffffffffffffffffffffffffffffffffff1673ffffffffffffffffffffffffffffffffffffffff16815260200191505060405180910390f35b348015610a4b57600080fd5b50610a7860048036036020811015610a6257600080fd5b8101908080359060200190929190505050611a88565b604051808273ffffffffffffffffffffffffffffffffffffffff1673ffffffffffffffffffffffffffffffffffffffff16815260200191505060405180910390f35b348015610ac657600080fd5b50610acf611abf565b6040518080602001828103825283818151815260200191508051906020019080838360005b83811015610b0f578082015181840152602081019050610af4565b50505050905090810190601f168015610b3c5780820380516001836020036101000a031916815260200191505b509250505060405180910390f35b348015610b5657600080fd5b50610b9960048036036020811015610b6d57600080fd5b81019080803573ffffffffffffffffffffffffffffffffffffffff169060200190929190505050611b61565b6040518082815260200191505060405180910390f35b348015610bbb57600080fd5b50610be860048036036020811015610bd257600080fd5b8101908080359060200190929190505050611c36565b604051808273ffffffffffffffffffffffffffffffffffffffff1673ffffffffffffffffffffffffffffffffffffffff16815260200191505060405180910390f35b348015610c3657600080fd5b50610c6d60048036036040811015610c4d57600080fd5b810190808035906020019092919080359060200190929190505050611c73565b005b348015610c7b57600080fd5b50610c84611d42565b6040518080602001828103825283818151815260200191508051906020019080838360005b83811015610cc4578082015181840152602081019050610ca9565b50505050905090810190601f168015610cf15780820380516001836020036101000a031916815260200191505b509250505060405180910390f35b348015610d0b57600080fd5b50610d14611de0565b6040518080602001828103825283818151815260200191508051906020019080838360005b83811015610d54578082015181840152602081019050610d39565b50505050905090810190601f168015610d815780820380516001836020036101000a031916815260200191505b509250505060405180910390f35b610e4860048036036020811015610da557600080fd5b8101908080359060200190640100000000811115610dc257600080fd5b820183602082011115610dd457600080fd5b80359060200191846001830284011164010000000083111715610df657600080fd5b91908080601f016020809104026020016040519081016040528093929190818152602001838380828437600081840152601f19601f820116905080830192505050505050509192919290505050611e82565b6040518082815260200191505060405180910390f35b348015610e6a57600080fd5b50610eb960048036036040811015610e8157600080fd5b81019080803573ffffffffffffffffffffffffffffffffffffffff169060200190929190803515159060200190929190505050611f5d565b005b348015610ec757600080fd5b50610ef460048036036020811015610ede57600080fd5b8101908080359060200190929190505050612115565b6040518082815260200191505060405180910390f35b348015610f1657600080fd5b50610f4360048036036020811015610f2d57600080fd5b8101908080359060200190929190505050612132565b6040518080602001828103825283818151815260200191508051906020019080838360005b83811015610f83578082015181840152602081019050610f68565b50505050905090810190601f168015610fb05780820380516001836020036101000a031916815260200191505b509250505060405180910390f35b348015610fca57600080fd5b506110ce60048036036080811015610fe157600080fd5b81019080803573ffffffffffffffffffffffffffffffffffffffff169060200190929190803573ffffffffffffffffffffffffffffffffffffffff169060200190929190803590602001909291908035906020019064010000000081111561104857600080fd5b82018360208201111561105a57600080fd5b8035906020019184600183028401116401000000008311171561107c57600080fd5b91908080601f016020809104026020016040519081016040528093929190818152602001838380828437600081840152601f19601f8201169050808301925050505050505091929192905050506121e7565b005b3480156110dc57600080fd5b50611109600480360360208110156110f357600080fd5b810190808035906020019092919050505061225f565b6040518080602001828103825283818151815260200191508051906020019080838360005b8381101561114957808201518184015260208101905061112e565b50505050905090810190601f1680156111765780820380516001836020036101000a031916815260200191505b509250505060405180910390f35b34801561119057600080fd5b506111bd600480360360208110156111a757600080fd5b8101908080359060200190929190505050612530565b604051808260028111156111cd57fe5b60ff16815260200191505060405180910390f35b3480156111ed57600080fd5b506111f6612550565b6040518082815260200191505060405180910390f35b34801561121857600080fd5b50611221612556565b6040518082815260200191505060405180910390f35b34801561124357600080fd5b506112a66004803603604081101561125a57600080fd5b81019080803573ffffffffffffffffffffffffffffffffffffffff169060200190929190803573ffffffffffffffffffffffffffffffffffffffff1690602001909291905050506125a2565b604051808215151515815260200191505060405180910390f35b6000806000837bffffffffffffffffffffffffffffffffffffffffffffffffffffffff19167bffffffffffffffffffffffffffffffffffffffffffffffffffffffff1916815260200190815260200160002060009054906101000a900460ff169050919050565b606060068054600181600116156101000203166002900480601f0160208091040260200160405190810160405280929190818152602001828054600181600116156101000203166002900480156113bf5780601f10611394576101008083540402835291602001916113bf565b820191906000526020600020905b8154815290600101906020018083116113a257829003601f168201915b5050505050905090565b60006113d482612636565b611429576040517f08c379a000000000000000000000000000000000000000000000000000000000815260040180806020018281038252602c8152602001806140a2602c913960400191505060405180910390fd5b6004600083815260200190815260200160002060009054906101000a900473ffffffffffffffffffffffffffffffffffffffff169050919050565b600061146f82611a88565b90508073ffffffffffffffffffffffffffffffffffffffff168373ffffffffffffffffffffffffffffffffffffffff1614156114f6576040517f08c379a00000000000000000000000000000000000000000000000000000000081526004018080602001828103825260218152602001806141526021913960400191505060405180910390fd5b8073ffffffffffffffffffffffffffffffffffffffff16611515612653565b73ffffffffffffffffffffffffffffffffffffffff16148061154457506115438161153e612653565b6125a2565b5b611599576040517f08c379a0000000000000000000000000000000000000000000000000000000008152600401808060200182810382526038815260200180613ff56038913960400191505060405180910390fd5b6115a3838361265b565b505050565b606060008263ffffffff1660028111156115be57fe5b90508060028111156115cc57fe5b600060028111156115d957fe5b141561161d576040518060400160405280600381526020017f50554700000000000000000000000000000000000000000000000000000000008152509150506116d8565b80600281111561162957fe5b6001600281111561163657fe5b141561167a576040518060400160405280600981526020017f53484942415f494e5500000000000000000000000000000000000000000000008152509150506116d8565b80600281111561168657fe5b60028081111561169257fe5b14156116d6576040518060400160405280600a81526020017f53545f4245524e415244000000000000000000000000000000000000000000008152509150506116d8565b505b919050565b6116ee6116e8612653565b83612714565b611760576040517f08c379a00000000000000000000000000000000000000000000000000000000081526004018080602001828103825260208152602001807f4552433732313a2063616c6c6572206f776e6572206f7220617070726f76656481525060200191505060405180910390fd5b61176a8282612808565b5050565b600061177a6002612892565b905090565b60116020528060005260406000206000915054906101000a900473ffffffffffffffffffffffffffffffffffffffff1681565b60146020528060005260406000206000915090505481565b6117db6117d5612653565b82612714565b611830576040517f08c379a00000000000000000000000000000000000000000000000000000000081526004018080602001828103825260318152602001806141736031913960400191505060405180910390fd5b61183b8383836128a7565b505050565b6000601360008363ffffffff16815260200190815260200160002060009054906101000a900460ff169050919050565b60006118c382600160008673ffffffffffffffffffffffffffffffffffffffff1673ffffffffffffffffffffffffffffffffffffffff168152602001908152602001600020612aea90919063ffffffff16565b905092915050565b60158054600181600116156101000203166002900480601f0160208091040260200160405190810160405280929190818152602001828054600181600116156101000203166002900480156119615780601f1061193657610100808354040283529160200191611961565b820191906000526020600020905b81548152906001019060200180831161194457829003601f168201915b505050505081565b600d5481565b61198a838383604051806020016040528060008152506121e7565b505050565b60126020528060005260406000206000915090508054600181600116156101000203166002900480601f016020809104026020016040519081016040528092919081815260200182805460018160011615610100020316600290048015611a375780601f10611a0c57610100808354040283529160200191611a37565b820191906000526020600020905b815481529060010190602001808311611a1a57829003601f168201915b505050505081565b600080611a56836002612b0490919063ffffffff16565b50905080915050919050565b600f60009054906101000a900473ffffffffffffffffffffffffffffffffffffffff1681565b6000611ab882604051806060016040528060298152602001614057602991396002612b339092919063ffffffff16565b9050919050565b606060098054600181600116156101000203166002900480601f016020809104026020016040519081016040528092919081815260200182805460018160011615610100020316600290048015611b575780601f10611b2c57610100808354040283529160200191611b57565b820191906000526020600020905b815481529060010190602001808311611b3a57829003601f168201915b5050505050905090565b60008073ffffffffffffffffffffffffffffffffffffffff168273ffffffffffffffffffffffffffffffffffffffff161415611be8576040517f08c379a000000000000000000000000000000000000000000000000000000000815260040180806020018281038252602a81526020018061402d602a913960400191505060405180910390fd5b611c2f600160008473ffffffffffffffffffffffffffffffffffffffff1673ffffffffffffffffffffffffffffffffffffffff168152602001908152602001600020612b52565b9050919050565b60006011600083815260200190815260200160002060009054906101000a900473ffffffffffffffffffffffffffffffffffffffff169050919050565b7f000000000000000000000000000000000000000000000000000000000000000073ffffffffffffffffffffffffffffffffffffffff163373ffffffffffffffffffffffffffffffffffffffff1614611d34576040517f08c379a000000000000000000000000000000000000000000000000000000000815260040180806020018281038252601f8152602001807f4f6e6c7920565246436f6f7264696e61746f722063616e2066756c66696c6c0081525060200191505060405180910390fd5b611d3e8282612b67565b5050565b60108054600181600116156101000203166002900480601f016020809104026020016040519081016040528092919081815260200182805460018160011615610100020316600290048015611dd85780601f10611dad57610100808354040283529160200191611dd8565b820191906000526020600020905b815481529060010190602001808311611dbb57829003601f168201915b505050505081565b606060078054600181600116156101000203166002900480601f016020809104026020016040519081016040528092919081815260200182805460018160011615610100020316600290048015611e785780601f10611e4d57610100808354040283529160200191611e78565b820191906000526020600020905b815481529060010190602001808311611e5b57829003601f168201915b5050505050905090565b60008160109080519060200190611e9a929190613e85565b506000611eab600b54600c54612ce4565b9050336011600083815260200190815260200160002060006101000a81548173ffffffffffffffffffffffffffffffffffffffff021916908373ffffffffffffffffffffffffffffffffffffffff16021790555082601260008381526020019081526020016000209080519060200190611f26929190613e85565b50807f6cd153b5b53302ec9e2c181348ad2070ff9ca49f5314d13480c811d74b2db85860405160405180910390a280915050919050565b611f65612653565b73ffffffffffffffffffffffffffffffffffffffff168273ffffffffffffffffffffffffffffffffffffffff161415612006576040517f08c379a00000000000000000000000000000000000000000000000000000000081526004018080602001828103825260198152602001807f4552433732313a20617070726f766520746f2063616c6c65720000000000000081525060200191505060405180910390fd5b8060056000612013612653565b73ffffffffffffffffffffffffffffffffffffffff1673ffffffffffffffffffffffffffffffffffffffff16815260200190815260200160002060008473ffffffffffffffffffffffffffffffffffffffff1673ffffffffffffffffffffffffffffffffffffffff16815260200190815260200160002060006101000a81548160ff0219169083151502179055508173ffffffffffffffffffffffffffffffffffffffff166120c0612653565b73ffffffffffffffffffffffffffffffffffffffff167f17307eab39ab6107e8899845ad3d59bd9653f200f220920489ca2b5937696c3183604051808215151515815260200191505060405180910390a35050565b600060146000838152602001908152602001600020549050919050565b6060601260008381526020019081526020016000208054600181600116156101000203166002900480601f0160208091040260200160405190810160405280929190818152602001828054600181600116156101000203166002900480156121db5780601f106121b0576101008083540402835291602001916121db565b820191906000526020600020905b8154815290600101906020018083116121be57829003601f168201915b50505050509050919050565b6121f86121f2612653565b83612714565b61224d576040517f08c379a00000000000000000000000000000000000000000000000000000000081526004018080602001828103825260318152602001806141736031913960400191505060405180910390fd5b61225984848484612ef3565b50505050565b606061226a82612636565b6122bf576040517f08c379a000000000000000000000000000000000000000000000000000000000815260040180806020018281038252602f815260200180614123602f913960400191505060405180910390fd5b6060600860008481526020019081526020016000208054600181600116156101000203166002900480601f0160208091040260200160405190810160405280929190818152602001828054600181600116156101000203166002900480156123685780601f1061233d57610100808354040283529160200191612368565b820191906000526020600020905b81548152906001019060200180831161234b57829003601f168201915b505050505090506060612379611abf565b905060008151141561238f57819250505061252b565b6000825111156124605780826040516020018083805190602001908083835b602083106123d157805182526020820191506020810190506020830392506123ae565b6001836020036101000a03801982511681845116808217855250505050505090500182805190602001908083835b6020831061242257805182526020820191506020810190506020830392506123ff565b6001836020036101000a038019825116818451168082178552505050505050905001925050506040516020818303038152906040529250505061252b565b8061246a85612f65565b6040516020018083805190602001908083835b602083106124a0578051825260208201915060208101905060208303925061247d565b6001836020036101000a03801982511681845116808217855250505050505090500182805190602001908083835b602083106124f157805182526020820191506020810190506020830392506124ce565b6001836020036101000a03801982511681845116808217855250505050505090500192505050604051602081830303815290604052925050505b919050565b60136020528060005260406000206000915054906101000a900460ff1681565b600e5481565b6000612566600b54600c54612ce4565b90507fe5f5b44d72d4143c278eb745c4acc0695c4a5bc616be5beecf46abe29661780e816040518082815260200191505060405180910390a190565b6000600560008473ffffffffffffffffffffffffffffffffffffffff1673ffffffffffffffffffffffffffffffffffffffff16815260200190815260200160002060008373ffffffffffffffffffffffffffffffffffffffff1673ffffffffffffffffffffffffffffffffffffffff16815260200190815260200160002060009054906101000a900460ff16905092915050565b600061264c8260026130ac90919063ffffffff16565b9050919050565b600033905090565b816004600083815260200190815260200160002060006101000a81548173ffffffffffffffffffffffffffffffffffffffff021916908373ffffffffffffffffffffffffffffffffffffffff160217905550808273ffffffffffffffffffffffffffffffffffffffff166126ce83611a88565b73ffffffffffffffffffffffffffffffffffffffff167f8c5be1e5ebec7d5bd14f71427d1e84f3dd0314c0f7b2291e5b200ac8c7c3b92560405160405180910390a45050565b600061271f82612636565b612774576040517f08c379a000000000000000000000000000000000000000000000000000000000815260040180806020018281038252602c815260200180613fc9602c913960400191505060405180910390fd5b600061277f83611a88565b90508073ffffffffffffffffffffffffffffffffffffffff168473ffffffffffffffffffffffffffffffffffffffff1614806127ee57508373ffffffffffffffffffffffffffffffffffffffff166127d6846113c9565b73ffffffffffffffffffffffffffffffffffffffff16145b806127ff57506127fe81856125a2565b5b91505092915050565b61281182612636565b612866576040517f08c379a000000000000000000000000000000000000000000000000000000000815260040180806020018281038252602c8152602001806140ce602c913960400191505060405180910390fd5b8060086000848152602001908152602001600020908051906020019061288d929190613e85565b505050565b60006128a0826000016130c6565b9050919050565b8273ffffffffffffffffffffffffffffffffffffffff166128c782611a88565b73ffffffffffffffffffffffffffffffffffffffff1614612933576040517f08c379a00000000000000000000000000000000000000000000000000000000081526004018080602001828103825260298152602001806140fa6029913960400191505060405180910390fd5b600073ffffffffffffffffffffffffffffffffffffffff168273ffffffffffffffffffffffffffffffffffffffff1614156129b9576040517f08c379a0000000000000000000000000000000000000000000000000000000008152600401808060200182810382526024815260200180613f7f6024913960400191505060405180910390fd5b6129c48383836130d7565b6129cf60008261265b565b612a2081600160008673ffffffffffffffffffffffffffffffffffffffff1673ffffffffffffffffffffffffffffffffffffffff1681526020019081526020016000206130dc90919063ffffffff16565b50612a7281600160008573ffffffffffffffffffffffffffffffffffffffff1673ffffffffffffffffffffffffffffffffffffffff1681526020019081526020016000206130f690919063ffffffff16565b50612a89818360026131109092919063ffffffff16565b50808273ffffffffffffffffffffffffffffffffffffffff168473ffffffffffffffffffffffffffffffffffffffff167fddf252ad1be2c89b69c2b068fc378daa952ba7f163c4a11628f55a4df523b3ef60405160405180910390a4505050565b6000612af98360000183613145565b60001c905092915050565b600080600080612b1786600001866131c8565b915091508160001c8160001c8090509350935050509250929050565b6000612b46846000018460001b84613261565b60001c90509392505050565b6000612b6082600001613357565b9050919050565b60006011600084815260200190815260200160002060009054906101000a900473ffffffffffffffffffffffffffffffffffffffff1690506060601260008581526020019081526020016000208054600181600116156101000203166002900480601f016020809104026020016040519081016040528092919081815260200182805460018160011615610100020316600290048015612c485780601f10612c1d57610100808354040283529160200191612c48565b820191906000526020600020905b815481529060010190602001808311612c2b57829003601f168201915b505050505090506000600e549050612c608382613368565b612c6a8183612808565b600060038581612c7657fe5b066002811115612c8257fe5b9050806013600084815260200190815260200160002060006101000a81548160ff02191690836002811115612cb357fe5b02179055508160146000888152602001908152602001600020819055506001600e5401600e81905550505050505050565b60007f000000000000000000000000000000000000000000000000000000000000000073ffffffffffffffffffffffffffffffffffffffff16634000aea07f00000000000000000000000000000000000000000000000000000000000000008486600060405160200180838152602001828152602001925050506040516020818303038152906040526040518463ffffffff1660e01b8152600401808473ffffffffffffffffffffffffffffffffffffffff1673ffffffffffffffffffffffffffffffffffffffff16815260200183815260200180602001828103825283818151815260200191508051906020019080838360005b83811015612df4578082015181840152602081019050612dd9565b50505050905090810190601f168015612e215780820380516001836020036101000a031916815260200191505b50945050505050602060405180830381600087803b158015612e4257600080fd5b505af1158015612e56573d6000803e3d6000fd5b505050506040513d6020811015612e6c57600080fd5b8101908080519060200190929190505050506000612ea084600030600a600089815260200190815260200160002054613386565b9050612ec96001600a60008781526020019081526020016000205461340090919063ffffffff16565b600a600086815260200190815260200160002081905550612eea8482613488565b91505092915050565b612efe8484846128a7565b612f0a848484846134c1565b612f5f576040517f08c379a0000000000000000000000000000000000000000000000000000000008152600401808060200182810382526032815260200180613f4d6032913960400191505060405180910390fd5b50505050565b60606000821415612fad576040518060400160405280600181526020017f300000000000000000000000000000000000000000000000000000000000000081525090506130a7565b600082905060005b60008214612fd7578080600101915050600a8281612fcf57fe5b049150612fb5565b60608167ffffffffffffffff81118015612ff057600080fd5b506040519080825280601f01601f1916602001820160405280156130235781602001600182028036833780820191505090505b50905060006001830390508593505b6000841461309f57600a848161304457fe5b0660300160f81b8282806001900393508151811061305e57fe5b60200101907effffffffffffffffffffffffffffffffffffffffffffffffffffffffffffff1916908160001a905350600a848161309757fe5b049350613032565b819450505050505b919050565b60006130be836000018360001b613706565b905092915050565b600081600001805490509050919050565b505050565b60006130ee836000018360001b613729565b905092915050565b6000613108836000018360001b613811565b905092915050565b600061313c846000018460001b8473ffffffffffffffffffffffffffffffffffffffff1660001b613881565b90509392505050565b6000818360000180549050116131a6576040517f08c379a0000000000000000000000000000000000000000000000000000000008152600401808060200182810382526022815260200180613f2b6022913960400191505060405180910390fd5b8260000182815481106131b557fe5b9060005260206000200154905092915050565b6000808284600001805490501161322a576040517f08c379a00000000000000000000000000000000000000000000000000000000081526004018080602001828103825260228152602001806140806022913960400191505060405180910390fd5b600084600001848154811061323b57fe5b906000526020600020906002020190508060000154816001015492509250509250929050565b60008084600101600085815260200190815260200160002054905060008114158390613328576040517f08c379a00000000000000000000000000000000000000000000000000000000081526004018080602001828103825283818151815260200191508051906020019080838360005b838110156132ed5780820151818401526020810190506132d2565b50505050905090810190601f16801561331a5780820380516001836020036101000a031916815260200191505b509250505060405180910390fd5b5084600001600182038154811061333b57fe5b9060005260206000209060020201600101549150509392505050565b600081600001805490509050919050565b61338282826040518060200160405280600081525061395d565b5050565b600084848484604051602001808581526020018481526020018373ffffffffffffffffffffffffffffffffffffffff1673ffffffffffffffffffffffffffffffffffffffff1681526020018281526020019450505050506040516020818303038152906040528051906020012060001c9050949350505050565b60008082840190508381101561347e576040517f08c379a000000000000000000000000000000000000000000000000000000000815260040180806020018281038252601b8152602001807f536166654d6174683a206164646974696f6e206f766572666c6f77000000000081525060200191505060405180910390fd5b8091505092915050565b60008282604051602001808381526020018281526020019250505060405160208183030381529060405280519060200120905092915050565b60006134e28473ffffffffffffffffffffffffffffffffffffffff166139ce565b6134ef57600190506136fe565b606061368563150b7a0260e01b613504612653565b888787604051602401808573ffffffffffffffffffffffffffffffffffffffff1673ffffffffffffffffffffffffffffffffffffffff1681526020018473ffffffffffffffffffffffffffffffffffffffff1673ffffffffffffffffffffffffffffffffffffffff16815260200183815260200180602001828103825283818151815260200191508051906020019080838360005b838110156135b4578082015181840152602081019050613599565b50505050905090810190601f1680156135e15780820380516001836020036101000a031916815260200191505b5095505050505050604051602081830303815290604052907bffffffffffffffffffffffffffffffffffffffffffffffffffffffff19166020820180517bffffffffffffffffffffffffffffffffffffffffffffffffffffffff8381831617835250505050604051806060016040528060328152602001613f4d603291398773ffffffffffffffffffffffffffffffffffffffff166139e19092919063ffffffff16565b9050600081806020019051602081101561369e57600080fd5b8101908080519060200190929190505050905063150b7a0260e01b7bffffffffffffffffffffffffffffffffffffffffffffffffffffffff1916817bffffffffffffffffffffffffffffffffffffffffffffffffffffffff191614925050505b949350505050565b600080836001016000848152602001908152602001600020541415905092915050565b60008083600101600084815260200190815260200160002054905060008114613805576000600182039050600060018660000180549050039050600086600001828154811061377457fe5b906000526020600020015490508087600001848154811061379157fe5b90600052602060002001819055506001830187600101600083815260200190815260200160002081905550866000018054806137c957fe5b6001900381819060005260206000200160009055905586600101600087815260200190815260200160002060009055600194505050505061380b565b60009150505b92915050565b600061381d83836139f9565b61387657826000018290806001815401808255809150506001900390600052602060002001600090919091909150558260000180549050836001016000848152602001908152602001600020819055506001905061387b565b600090505b92915050565b600080846001016000858152602001908152602001600020549050600081141561392857846000016040518060400160405280868152602001858152509080600181540180825580915050600190039060005260206000209060020201600090919091909150600082015181600001556020820151816001015550508460000180549050856001016000868152602001908152602001600020819055506001915050613956565b8285600001600183038154811061393b57fe5b90600052602060002090600202016001018190555060009150505b9392505050565b6139678383613a1c565b61397460008484846134c1565b6139c9576040517f08c379a0000000000000000000000000000000000000000000000000000000008152600401808060200182810382526032815260200180613f4d6032913960400191505060405180910390fd5b505050565b600080823b905060008111915050919050565b60606139f08484600085613c10565b90509392505050565b600080836001016000848152602001908152602001600020541415905092915050565b600073ffffffffffffffffffffffffffffffffffffffff168273ffffffffffffffffffffffffffffffffffffffff161415613abf576040517f08c379a00000000000000000000000000000000000000000000000000000000081526004018080602001828103825260208152602001807f4552433732313a206d696e7420746f20746865207a65726f206164647265737381525060200191505060405180910390fd5b613ac881612636565b15613b3b576040517f08c379a000000000000000000000000000000000000000000000000000000000815260040180806020018281038252601c8152602001807f4552433732313a20746f6b656e20616c7265616479206d696e7465640000000081525060200191505060405180910390fd5b613b47600083836130d7565b613b9881600160008573ffffffffffffffffffffffffffffffffffffffff1673ffffffffffffffffffffffffffffffffffffffff1681526020019081526020016000206130f690919063ffffffff16565b50613baf818360026131109092919063ffffffff16565b50808273ffffffffffffffffffffffffffffffffffffffff16600073ffffffffffffffffffffffffffffffffffffffff167fddf252ad1be2c89b69c2b068fc378daa952ba7f163c4a11628f55a4df523b3ef60405160405180910390a45050565b606082471015613c6b576040517f08c379a0000000000000000000000000000000000000000000000000000000008152600401808060200182810382526026815260200180613fa36026913960400191505060405180910390fd5b613c74856139ce565b613ce6576040517f08c379a000000000000000000000000000000000000000000000000000000000815260040180806020018281038252601d8152602001807f416464726573733a2063616c6c20746f206e6f6e2d636f6e747261637400000081525060200191505060405180910390fd5b600060608673ffffffffffffffffffffffffffffffffffffffff1685876040518082805190602001908083835b60208310613d365780518252602082019150602081019050602083039250613d13565b6001836020036101000a03801982511681845116808217855250505050505090500191505060006040518083038185875af1925050503d8060008114613d98576040519150601f19603f3d011682016040523d82523d6000602084013e613d9d565b606091505b5091509150613dad828286613db9565b92505050949350505050565b60608315613dc957829050613e7e565b600083511115613ddc5782518084602001fd5b816040517f08c379a00000000000000000000000000000000000000000000000000000000081526004018080602001828103825283818151815260200191508051906020019080838360005b83811015613e43578082015181840152602081019050613e28565b50505050905090810190601f168015613e705780820380516001836020036101000a031916815260200191505b509250505060405180910390fd5b9392505050565b828054600181600116156101000203166002900490600052602060002090601f016020900481019282601f10613ec657805160ff1916838001178555613ef4565b82800160010185558215613ef4579182015b82811115613ef3578251825591602001919060010190613ed8565b5b509050613f019190613f05565b5090565b613f2791905b80821115613f23576000816000905550600101613f0b565b5090565b9056fe456e756d657261626c655365743a20696e646578206f7574206f6620626f756e64734552433732313a207472616e7366657220746f206e6f6e20455243373231526563656976657220696d706c656d656e7465724552433732313a207472616e7366657220746f20746865207a65726f2061646472657373416464726573733a20696e73756666696369656e742062616c616e636520666f722063616c6c4552433732313a206f70657261746f7220717565727920666f72206e6f6e6578697374656e7420746f6b656e4552433732313a20617070726f76652063616c6c6572206973206e6f74206f776e6572206e6f7220617070726f76656420666f7220616c6c4552433732313a2062616c616e636520717565727920666f7220746865207a65726f20616464726573734552433732313a206f776e657220717565727920666f72206e6f6e6578697374656e7420746f6b656e456e756d657261626c654d61703a20696e646578206f7574206f6620626f756e64734552433732313a20617070726f76656420717565727920666f72206e6f6e6578697374656e7420746f6b656e4552433732314d657461646174613a2055524920736574206f66206e6f6e6578697374656e7420746f6b656e4552433732313a207472616e73666572206f6620746f6b656e2074686174206973206e6f74206f776e4552433732314d657461646174613a2055524920717565727920666f72206e6f6e6578697374656e7420746f6b656e4552433732313a20617070726f76616c20746f2063757272656e74206f776e65724552433732313a207472616e736665722063616c6c6572206973206e6f74206f776e6572206e6f7220617070726f766564a2646970667358221220e4ece6bd774495871920ec991ec2bdc066341c510fbb34828ecbd0648141335664736f6c63430006060033",
  "immutableReferences": {
    "392": [
      {
        "length": 32,
        "start": 11496
      }
    ],
    "394": [
      {
        "length": 32,
        "start": 7285
      },
      {
        "length": 32,
        "start": 11556
      }
    ]
  },
  "source": "// SPDX-License-Identifier: MIT\npragma solidity >=0.4.22 <0.9.0;\n\n\nimport \"@openzeppelin/contracts/token/ERC721/ERC721.sol\";\nimport \"@chainlink/contracts/src/v0.6/VRFConsumerBase.sol\";\n\ncontract AdvanceCollectibles is ERC721, VRFConsumerBase {\n//pragma solidity >=0.6.0 <0.8.0;conLi\n    bytes32 internal keyHash;\n    uint256 internal fee;\n    uint256 public randomResult;\n    uint256 public tokenCounter;\n    address public LinkToken;\n    string public checkEx;\n\n    enum Breed{PUG, SHIBA_INU, ST_BERNARD}\n\n    event RequestedRandomness(bytes32 requestId);\n    event RequestCollectible(bytes32 indexed requestId);\n\n    mapping(bytes32 => address) public requestIdToSender;\n    mapping(bytes32 => string) public requestIdToTokenURI;\n    mapping(uint256 => Breed) public tokenIdToBreed;\n    mapping(bytes32 => uint256) public requestIdToTokenId;\n\n\n    constructor (\n            address  _vrfCoordinatorAddress,\n            address _linkTokenAddress,\n            bytes32 _keyHash\n            \n        ) public\n    VRFConsumerBase(\n            _vrfCoordinatorAddress,\n            _linkTokenAddress \n        )\n    ERC721(\n        \"Doggies\",\n        \"DOG\"\n        )\n    {\n        keyHash = _keyHash;\n        LinkToken = _linkTokenAddress;\n        fee = 1.0 * 10 ** 18;\n        tokenCounter = 0;\n    }\n\n    string public mockVar;\n    event myEvent(bytes32 requestId);\n\n    function getrequestIdToSender(bytes32 requestId) view public returns(address){\n        return requestIdToSender[requestId];\n    }\n    function getrequestIdToTokenURI(bytes32 requestId) view public returns(string memory){\n        return requestIdToTokenURI[requestId];\n    }\n    function gettokenIdToBreed(uint32 tokenId) view public returns(Breed){\n        return tokenIdToBreed[tokenId];\n    }\n    function gettokenIdToBreedStr(uint32 tokenId) view public returns(string memory){\n        Breed breed = Breed(tokenId);\n\n        if (Breed.PUG == breed) return \"PUG\";\n        if (Breed.SHIBA_INU == breed) return \"SHIBA_INU\";\n        if (Breed.ST_BERNARD == breed) return \"ST_BERNARD\";\n    }\n    function getrequestIdToTokenId(bytes32 requestId) view public returns(uint256){\n        return requestIdToTokenId[requestId];\n    }\n\n\n    function check4(string memory str) public payable returns (bytes32){\n        checkEx = str;\n        bytes32 requestId = requestRandomness(keyHash, fee);\n        requestIdToSender[requestId] = msg.sender;\n        requestIdToTokenURI[requestId] = str;\n        emit RequestCollectible(requestId);\n        return requestId;\n    }\n\n    /**\n     * Callback function used by VRF Coordinator\n     */\n    function fulfillRandomness(bytes32 requestId, uint256 randomNumber) internal override {\n        address dogOwner = requestIdToSender[requestId];\n        string memory tokenURI = requestIdToTokenURI[requestId];\n        uint256 newItemId = tokenCounter;\n        _safeMint(dogOwner, newItemId);\n        _setTokenURI(newItemId, tokenURI);\n\n        Breed breed = Breed(randomNumber % 3);\n        tokenIdToBreed[newItemId] = breed;\n        requestIdToTokenId[requestId] = newItemId;\n        tokenCounter = tokenCounter + 1;\n        //randomResult = randomNumber;\n    }\n\n    function setTokenURI(uint256 tokenId, string memory tokenURI) public{\n        require(_isApprovedOrOwner(_msgSender(), tokenId), \"ERC721: caller owner or approved\");\n        _setTokenURI(tokenId, tokenURI);\n    }\n\n\n    /** \n     * Requests randomness from a user-provided seed\n     */\n    function getRandomNumber() public returns (bytes32 requestId) {\n        requestId = requestRandomness(keyHash, fee);\n        emit RequestedRandomness(requestId);\n    }\n    \n    // /** \n    //  * Requests the address of the Chainlink Token on this network \n    //  */\n    // function getChainlinkToken() public view returns (address) {\n    //     return address(LINK);\n    // }\n\n}",
  "sourcePath": "/home/sulaman/Documents/BlockchainProjects/NFT/NFT_scratch/contracts/AdvanceCollectibles.sol",
  "compiler": {
    "name": "solc",
    "version": "0.6.6+commit.6c089d02.Emscripten.clang"
  },
  "schemaVersion": "3.4.1",
  "updatedAt": "2021-08-22T10:42:11.136Z",
  "networkType": "ethereum",
  "devdoc": {
    "methods": {
      "approve(address,uint256)": {
        "details": "See {IERC721-approve}."
      },
      "balanceOf(address)": {
        "details": "See {IERC721-balanceOf}."
      },
      "baseURI()": {
        "details": "Returns the base URI set via {_setBaseURI}. This will be automatically added as a prefix in {tokenURI} to each token's URI, or to the token ID if no specific URI is set for that token ID."
      },
      "getApproved(uint256)": {
        "details": "See {IERC721-getApproved}."
      },
      "isApprovedForAll(address,address)": {
        "details": "See {IERC721-isApprovedForAll}."
      },
      "name()": {
        "details": "See {IERC721Metadata-name}."
      },
      "ownerOf(uint256)": {
        "details": "See {IERC721-ownerOf}."
      },
      "safeTransferFrom(address,address,uint256)": {
        "details": "See {IERC721-safeTransferFrom}."
      },
      "safeTransferFrom(address,address,uint256,bytes)": {
        "details": "See {IERC721-safeTransferFrom}."
      },
      "setApprovalForAll(address,bool)": {
        "details": "See {IERC721-setApprovalForAll}."
      },
      "supportsInterface(bytes4)": {
        "details": "See {IERC165-supportsInterface}.     * Time complexity O(1), guaranteed to always use less than 30 000 gas."
      },
      "symbol()": {
        "details": "See {IERC721Metadata-symbol}."
      },
      "tokenByIndex(uint256)": {
        "details": "See {IERC721Enumerable-tokenByIndex}."
      },
      "tokenOfOwnerByIndex(address,uint256)": {
        "details": "See {IERC721Enumerable-tokenOfOwnerByIndex}."
      },
      "tokenURI(uint256)": {
        "details": "See {IERC721Metadata-tokenURI}."
      },
      "totalSupply()": {
        "details": "See {IERC721Enumerable-totalSupply}."
      },
      "transferFrom(address,address,uint256)": {
        "details": "See {IERC721-transferFrom}."
      }
    }
  },
  "userdoc": {
    "methods": {
      "getRandomNumber()": {
        "notice": "Requests randomness from a user-provided seed"
      }
    }
  }
}